:100000000C9434000C9446000C9446000C9446006A
:100010000C9446000C9446000C9446000C94460048
:100020000C9446000C9446000C9446000C94460038
:100030000C9446000C9446000C9446000C94460028
:100040000C9446000C9446000C9446000C94460018
:100050000C9446000C9446000C9446000C94460008
:100060000C9446000C94460011241FBECFEFD8E03C
:10007000DEBFCDBF21E0A0E0B1E001C01D92A830FD
:10008000B207E1F70E9477010C94AB010C940000D9
:1000900084B1866084B982EA809380008AE180938B
:1000A000810008955093870040938600813029F4A1
:1000B00070938B0060938A00089570938900609319
:1000C0008800089587E68093C4001092C500E2EC92
:1000D000F0E080818660808388E18093C10008958C
:1000E0008091C00087FFFCCF8091C6000895909159
:1000F000C00095FFFCCF8093C6000895823009F4BC
:10010000C6C028F52091060130910701882309F423
:1001100055C0813009F48EC020910601309107014D
:1001200080E29EE49093870080938600309389005C
:10013000209388002091040130910501909387005D
:100140008093860030938B0020938A00089584303A
:1001500009F48EC008F4B5C08530F1F6809106012F
:10016000909107018536910548F005979093070116
:100170008093060190930501809304018091020110
:1001800081117FC088B1856088B988B1857F88B9C1
:1001900080910101811105C080910001882309F43B
:1001A000BBCF109207011092060110920501109228
:1001B00004011092010110920001AECF8091030161
:1001C000811117C0809102018111A6CF20328EE4E7
:1001D000380731F0265F3F4F309307012093060127
:1001E000809106019091070190930501809304018D
:1001F00093CF813009F090CF80910201813009F0D6
:100200008BCF2536310558F02E5131093093070137
:100210002093060130930501209304017DCF88B11E
:10022000856088B988B1857F88B9109203011092E2
:10023000020172CF90910301913031F4809102015B
:10024000813009F069CFC2CF911166CF9091020140
:10025000911162CF25363105B8F698B19A6098B9F8
:1002600098B19A7F98B9809303018093020154CF8B
:1002700010920701109206011092050110920401DC
:100280004BCF88B18A6088B988B18A7F80CF88B126
:10029000866088B988B1867F88B98091060190917F
:1002A00007018436910508F037CF1092010181E0F3
:1002B0008093000188E99AE39093070180930601F7
:1002C00093CF88B1896088B988B1897F88B98091D6
:1002D0000601909107018436910508F01DCF81E059
:1002E000809301011092000180E197E2E5CF0E9426
:1002F00048000E9462008FE087B980E29EE49093FC
:100300008700809386001092890010928800909355
:1003100087008093860010928B0010928A000E94C2
:100320007000853721F480E00E947E00F8CF84368B
:1003300011F481E0F9CF833711F484E0F5CF8E36E4
:1003400011F485E0F1CF8C3611F483E0EDCF8237E4
:0A03500031F782E0E9CFF894FFCF07
:00000001FF
