:100000000C9434000C9446000C9446000C9446006A
:100010000C9446000C9446000C9446000C94460048
:100020000C9446000C9446000C9446000C94460038
:100030000C9446000C9446000C9446000C94460028
:100040000C9446000C9446000C9446000C94460018
:100050000C9446000C9446000C9446000C94460008
:100060000C9446000C94460011241FBECFEFD8E03C
:10007000DEBFCDBF21E0A0E0B1E001C01D92A630FF
:10008000B207E1F70E943E010C9472010C9400004B
:1000900084B1866084B982EA809380008AE180938B
:1000A000810008955093870040938600813029F4A1
:1000B00070938B0060938A00089570938900609319
:1000C0008800089587E68093C4001092C500E2EC92
:1000D000F0E080818660808388E18093C10008958C
:1000E0008091C00087FFFCCF8091C6000895909159
:1000F000C00095FFFCCF8093C6000895823009F4BC
:10010000B1C028F52091040130910501882309F43C
:1001100040C0813009F479C020910401309105017B
:1001200080E29EE49093870080938600309389005C
:100130002093880020910201309103019093870061
:100140008093860030938B0020938A00089584303A
:1001500009F479C008F48CC08530F1F6809104016F
:10016000909105018536910548F00597909305011A
:100170008093040190930301809302018091000118
:1001800081116AC088B1856088B988B1857F88B9D6
:10019000C3CF80910101811117C0809100018111AD
:1001A000BBCF20328EE4380731F0265F3F4F3093CB
:1001B0000501209304018091040190910501909321
:1001C000030180930201A8CF813009F0A5CF80916F
:1001D0000001813009F0A0CF2536310558F02E51AD
:1001E00031093093050120930401309303012093DA
:1001F000020192CF88B1856088B988B1857F88B9BE
:10020000109201011092000187CF9091010191306D
:1002100031F480910001813009F07ECFC2CF91117D
:100220007BCF90910001911177CF25363105B8F63B
:1002300098B19A6098B998B19A7F98B98093010162
:100240008093000169CF1092050110920401109271
:1002500003011092020160CF88B18A6088B988B129
:100260008A7F95CF88B1866088B988B1867F88B942
:1002700088B1896088B988B1897F89CF0E94480098
:100280000E9462008FE087B980E29EE4909387002D
:1002900080938600109289001092880090938700C6
:1002A0008093860010928B0010928A000E9470004A
:1002B000853721F480E00E947E00F8CF843611F467
:1002C00081E0F9CF833711F484E0F5CF8E3611F455
:1002D00085E0F1CF8C3611F483E0EDCF823731F732
:0802E00082E0E9CFF894FFCFA2
:00000001FF
