:100000000C9434000C9446000C9446000C9446006A
:100010000C9446000C9446000C9446000C94460048
:100020000C9446000C9446000C9446000C94460038
:100030000C9446000C9446000C9446000C94460028
:100040000C9446000C9446000C9446000C94460018
:100050000C9446000C9446000C9446000C94460008
:100060000C9446000C94460011241FBECFEFD8E03C
:10007000DEBFCDBF21E0A0E0B1E001C01D92A830FD
:10008000B207E1F70E9484010C94B8010C940000BF
:1000900084B1866084B982EA809380008AE180938B
:1000A000810008955093870040938600813029F4A1
:1000B00070938B0060938A00089570938900609319
:1000C0008800089587E68093C4001092C500E2EC92
:1000D000F0E080818660808388E18093C10008958C
:1000E0008091C00087FFFCCF8091C6000895909159
:1000F000C00095FFFCCF8093C6000895823009F4BC
:10010000D3C028F52091060130910701882309F416
:1001100057C0813009F491C0209106013091070148
:1001200080E29EE49093870080938600309389005C
:10013000209388002091040130910501909387005D
:100140008093860030938B0020938A00089584303A
:1001500009F492C008F4C2C08530F1F6809106011E
:1001600090910701893E23E0920708F48EC005971D
:1001700090930701809306019093050180930401F9
:100180008091020181118AC088B1856088B988B1E7
:10019000857F88B980910101811105C0809100019E
:1001A000882309F4B9CF109207011092060110922A
:1001B0000501109204011092010110920001ACCFD0
:1001C00080910301811117C0809102018111A4CF98
:1001D00020328EE4380731F0265F3F4F309307011D
:1001E00020930601809106019091070190930501EB
:1001F0008093040191CF813009F08ECF809102016C
:10020000813009F089CF293E93E0390758F02E510B
:1002100031093093070120930601309305012093A3
:1002200004017ACF88B1856088B988B1857F88B9A3
:1002300010920301109202016FCF9091030191304F
:1002400031F480910201813009F066CFC1CF911164
:1002500063CF9091020191115FCF293E93E039075E
:10026000B0F698B19A6098B998B19A7F98B980938E
:1002700003018093020150CF1092070110920601F2
:10028000109205011092040147CF109207011092BD
:100290000601109205011092040172CF88B18A60A4
:1002A00088B988B18A7F75CF88B1866088B988B1EE
:1002B000867F88B98091060190910701883E93401E
:1002C00008F02ACF1092010181E08093000188E9B3
:1002D0009AE3909307018093060188CF88B18960E3
:1002E00088B988B1897F88B980910601909107010A
:1002F000883E934008F010CF81E080930101109276
:10030000000180E197E2E5CF0E9448000E94620070
:100310008FE087B980E29EE4909387008093860007
:100320001092890010928800909387008093860035
:1003300010928B0010928A000E947000853721F481
:1003400080E00E947E00F8CF843611F481E0F9CF7E
:10035000833711F484E0F5CF8E3611F485E0F1CFC8
:100360008C3611F483E0EDCF823731F782E0E9CFAC
:04037000F894FFCF2F
:00000001FF
