:100000000C9434000C9446000C9446000C9446006A
:100010000C9446000C9446000C9446000C94460048
:100020000C9446000C9446000C9446000C94460038
:100030000C9446000C9446000C9446000C94460028
:100040000C9446000C9446000C9446000C94460018
:100050000C9446000C9446000C9446000C94460008
:100060000C9446000C94460011241FBECFEFD8E03C
:10007000DEBFCDBF21E0A0E0B1E001C01D92A630FF
:10008000B207E1F70E9425010C9451010C94000085
:1000900084B1866084B982EA809380008AE180938B
:1000A000810008955093870040938600813029F4A1
:1000B00070938B0060938A00089570938900609319
:1000C0008800089587E68093C4001092C500E2EC92
:1000D000F0E080818660808388E18093C10008958C
:1000E0008091C00087FFFCCF8091C6000895909159
:1000F000C00095FFFCCF8093C6000895813009F4BD
:100100005AC008F1843009F48DC0853009F493C0D9
:10011000209104013091050180E29EE490938700D4
:1001200080938600309389002093880020910201FB
:1001300030910301909387008093860030938B0069
:1001400020938A00089520910101809104019091EB
:100150000501211116C0209100012111D9CF803253
:100160002EE4920729F00A969093050180930401EA
:100170008091040190910501909303018093020105
:10018000C7CF213029F620910001213009F68536AC
:10019000910530F04E979093050180930401ECCFC8
:1001A00088B1856088B988B1857F88B910920101CE
:1001B00010920001ADCF9091010120910401309186
:1001C0000501913081F480910001813009F0A0CFC8
:1001D00020328EE4380761F2265F3F4F30930501ED
:1001E00020930401C5CF911193CF909100019111FB
:1001F0008FCF2536310558F02E5131093093050146
:1002000020930401309303012093020181CF98B120
:100210009A6098B998B19A7F98B9809301018093B8
:10022000000176CF10920501109204011092030193
:10023000109202016DCF80910401909105018536E5
:10024000910508F465CF0597A6CF0E9448000E944B
:1002500062008FE087B980E29EE4909387008093EC
:1002600086001092890010928800909387008093F6
:10027000860010928B0010928A000E9470008537D1
:1002800021F480E00E947E00F8CF843611F481E0F2
:10029000F9CF833711F484E0F5CF8E3671F785E01E
:0602A000F1CFF894FFCF3E
:00000001FF
