:100000000C9434000C9451000C9451000C94510049
:100010000C9451000C9451000C9451000C9451001C
:100020000C9451000C9451000C9451000C9451000C
:100030000C9451000C9451000C9451000C945100FC
:100040000C9451000C9451000C9451000C945100EC
:100050000C9451000C9451000C9451000C945100DC
:100060000C9451000C94510011241FBECFEFD8E026
:10007000DEBFCDBF11E0A0E0B1E0E0E5F2E002C0FC
:1000800005900D92A230B107D9F721E0A2E0B1E0CE
:1000900001C01D92A630B207E1F70E94FE000C9449
:1000A00026010C94000084B1866084B982EA8093B2
:1000B00080008AE1809381000895509387004093E7
:1000C0008600813029F470938B0060938A00089534
:1000D0007093890060938800089587E68093C40038
:1000E0001092C500E2ECF0E080818660808388E1B8
:1000F0008093C10008958091C00087FFFCCF80915C
:10010000C60008959091C00095FFFCCF8093C60073
:10011000089520910401309105018430F1F085307B
:1001200009F443C0209104013091050180E29EE46E
:1001300090938700809386003093890020938800F5
:1001400020910201309103019093870080938600F3
:1001500030938B0020938A00089590910101943090
:1001600079F4809100018430E9F620324EE43407BE
:1001700049F1265F3F4F309305012093040122C0CF
:10018000953081F690910001953061F6293E43E06B
:10019000340770F12E513109309305012093040189
:1001A0003093030120930201BDCF9091010195305E
:1001B00091F480910001853009F0B4CF20328EE4B3
:1001C0003807B9F6809104019091050190930301DD
:1001D00080930201A7CF943009F0A4CF9091000141
:1001E000943009F09FCF293E93E0390798F69AE0C2
:1001F00098B9809301018093000194CF0E9453002D
:100200000E946D008FE087B920E23EE430938700C2
:100210002093860080E197E2909389008093880084
:10022000309387002093860090938B0080938A0000
:100230000E947B00C82F0E94820084E0C53719F01D
:10024000C436B1F785E00E948900F2CFF894FFCF61
:020250000404A4
:00000001FF
